:100000000C94E3000C940B010C940B010C94BB08B2
:100010000C94BB080C94BB080C940B010C940B01C2
:100020000C940B010C940B010C940B010C940B0120
:100030000C940B010C940B010C940B010C940B0110
:100040000C9471080C940B010C943F080C94190843
:100050000C940B010C940B010C940B010C940B01F0
:100060000C9433090C940B010000000024002700BD
:100070002A0000000008000201000003040700003D
:100080000000000000000000000000000000000070
:10009000000000000000000000000000000001015E
:1000A000010101010101010101010202020202023A
:1000B0000202030303030303040404040505050506
:1000C00005060606060707070808080909090A0AB7
:1000D0000A0B0B0B0C0C0D0D0D0E0E0F0F1010114B
:1000E00011121213131414151516161718181919BE
:1000F0001A1B1B1C1D1D1E1F1F202122222324250D
:1001000026262728292A2A2B2C2D2E2F3031323330
:100110003435363738393A3B3C3D3E3F4041424426
:1001200045464748494B4C4D4E50515254555658F0
:10013000595A5C5D5E606163646667696A6C6D6F85
:100140007072737577787A7C7D7F818284868889E6
:100150008B8D8F91929496989A9C9EA0A2A4A6A80B
:10016000AAACAEB0B2B4B6B8BABCBFC1C3C5C7CAF8
:10017000CCCED1D3D5D7DADCDFE1E3E6E8EBEDF0A6
:10018000F2F5F7FAFCFF000000002300260029002A
:10019000010204081020408001020408102001021E
:1001A0000408102000000000250028002B00040493
:1001B000040404040404020202020202030303030F
:1001C0000303520A950E11241FBECFEFD8E0DEBF05
:1001D000CDBF11E0A0E0B1E0E8EFF0E202C0059091
:1001E0000D92A636B107D9F723E0A6E6B1E001C02B
:1001F0001D92A836B207E1F710E0C2EED0E004C0CD
:100200002197FE010E94380FC13ED107C9F70E9415
:10021000AB0B0C946F100C940000AF92BF92CF9276
:10022000DF92EF92FF920F931F93CF93DF936C01B6
:100230007B018B01040F151FEB015E01AE18BF0897
:10024000C017D10759F06991D601ED91FC91019049
:10025000F081E02DC6010995892B79F7C501DF9161
:10026000CF911F910F91FF90EF90DF90CF90BF90B3
:10027000AF900895FC01538D448D252F30E0842FDD
:1002800090E0821B930B541710F0CF9608950197BE
:100290000895FC01918D828D981761F0A28DAE0FAB
:1002A000BF2FB11D5D968C91928D9F5F9F73928F32
:1002B00090E008958FEF9FEF0895FC01918D828D5E
:1002C000981731F0828DE80FF11D858D90E008952B
:1002D0008FEF9FEF0895FC01918D228D892F90E083
:1002E000805C9F4F821B91098F73992708958DE63B
:1002F00092E00E946B0121E0892B09F420E0822F1B
:10030000089580E090E0892B29F00E947701811107
:100310000C9400000895FC01A48DA80FB92FB11D05
:10032000A35ABF4F2C91848D90E001968F7399272B
:10033000848FA689B7892C93A089B1898C91837009
:1003400080648C93938D848D981306C00288F38902
:10035000E02D80818F7D80830895EF92FF920F932F
:100360001F93CF93DF93EC0181E0888F9B8D8C8D61
:1003700098131AC0E889F989808185FF15C09FB755
:10038000F894EE89FF896083E889F9898081837018
:10039000806480839FBF81E090E0DF91CF911F91C7
:1003A0000F91FF90EF900895F62E0B8D10E00F5FE8
:1003B0001F4F0F731127E02E8C8D8E110CC00FB6BE
:1003C00007FCFACFE889F989808185FFF5CFCE0156
:1003D0000E948B01F1CFEB8DEC0FFD2FF11DE35A45
:1003E000FF4FF0829FB7F8940B8FEA89FB898081D9
:1003F0008062CFCFCF93DF93EC01888D8823B9F053
:10040000AA89BB89E889F9898C9185FD03C080811F
:1004100086FD0DC00FB607FCF7CF8C9185FFF2CF9C
:10042000808185FFEDCFCE010E948B01E9CFDF9166
:10043000CF91089590E0FC01EE58FF4F2491FC010C
:10044000E057FE4F3491FC01E255FE4FE491EE235C
:10045000C9F0222339F0233001F1A8F4213019F139
:10046000223029F1F0E0EE0FFF1FEC55FE4FA59171
:10047000B4918FB7F894EC91611126C030953E236A
:100480003C938FBF08952730A9F02830C9F024305D
:1004900049F7809180008F7D03C0809180008F7725
:1004A00080938000DFCF84B58F7784BDDBCF84B5A8
:1004B0008F7DFBCF8091B0008F778093B000D2CF3B
:1004C0008091B0008F7DF9CF3E2BDACFCF93DF93B1
:1004D00090E0FC01E057FE4F249182559E4FFC01B5
:1004E00084918823D1F090E0880F991FFC01E8598E
:1004F000FF4FA591B491FC01EC55FE4FC591D491ED
:1005000061110EC09FB7F8948C91E22FE0958E2375
:100510008C932881E223E8839FBFDF91CF910895D8
:100520008FB7F894EC91E22BEC938FBFF6CF3FB7E7
:10053000F8948091150290911602A0911702B09143
:10054000180226B5A89B05C02F3F19F00196A11DE2
:10055000B11D3FBFBA2FA92F982F8827BC01CD010D
:10056000620F711D811D911D42E0660F771F881F6C
:10057000991F4A95D1F70895CF92DF92EF92FF929B
:100580000F931F93CF93DF93CDB7DEB729970FB6A5
:10059000F894DEBF0FBECDBFC0905D03D0905E0368
:1005A000E0905F03F09060030E9497026C157D0558
:1005B0008E059F0550F40E94970260935D0370932F
:1005C0005E0380935F03909360030E949702009103
:1005D0005D0310915E0320915F0330916003601B07
:1005E000710B820B930B6C32714081059105A0F267
:1005F000F89480915203909153039A838983E091F8
:100600005703F0915803DF011196808189879091FB
:100610004E03E0916103F09162038091630399239B
:1006200009F449C09081982B9887908180958923FF
:100630008F838F818C8388E08B8358856F81498578
:100640003B812C8189819A81508347FD252F3A95E2
:100650002083262F39F0441F00C000006083000073
:1006600000C0F2CF38E04D9160830000019761F740
:10067000F0936203E093610349873B832C839A8361
:10068000898378940E94970260935D0370935E0360
:1006900080935F039093600329960FB6F894DEBFB2
:1006A0000FBECDBFDF91CF911F910F91FF90EF90C3
:1006B000DF90CF9008959081982B988790818095B6
:1006C00089238F838F818E8388E08D8358856F8106
:1006D00049853D812E8189819A81508347FD252F4F
:1006E00000C000C0208300C000C000C000C000C027
:1006F00060830000262F3A9541F0441F000000C09F
:1007000000C000C000C000C0E8CF38E04D9100C07C
:10071000608300C0019709F7F0936203E0936103DF
:1007200049873D832E83ABCF8F929F92AF92BF922A
:10073000CF92DF92EF92FF926B017C010E949702B1
:100740004B015C01C114D104E104F104B9F00E9431
:100750009702681979098A099B09683E73408105E7
:10076000910580F321E0C21AD108E108F10888EE72
:10077000880E83E0981EA11CB11CE4CFFF90EF907F
:10078000DF90CF90BF90AF909F908F900895209171
:100790001B0230911C022817390771F4909119023D
:1007A00080911A02981741F0E0911902F0E0E053AD
:1007B000FE4F808190E008958FEF9FEF0895089598
:1007C000EF92FF920F931F93CF93DF93DC015C9620
:1007D000ED90FC905D97E114F10479F481E090E0F4
:1007E00013969C938E93129790E080E0DF91CF91C7
:1007F0001F910F91FF90EF9008955196ED91FC910C
:10080000529750968C915097982F90950FB75E966F
:100810002C915E97122F127021FD6095F894208123
:10082000112319F1282B2083E7012197F1F728E004
:10083000462F50E0308160FF1AC0382B3083E7012B
:100840002197F1F7BA0175956795215089F7112322
:1008500081F08081892380830FBF5C968D919C916C
:100860000197F1F781E090E0C1CF2923DCCF392354
:10087000E5CF9081892BEFCF20911B0230911C0294
:100880002817390771F480911A022091190290E01B
:10089000805C9F4F821B910960E470E00E94D40E3F
:1008A000089590E080E0089520911B0230911C0291
:1008B00028173907B9F49091190280911A029817F4
:1008C00089F0E0911902F0E0E053FE4F8081209121
:1008D000190230E02F5F3F4F2F7333272093190207
:1008E00090E008958FEF9FEF08952091AB01260FC0
:1008F0003327331F21323105ECF420914302FC01F0
:1009000090E080E0243069F082E00895A091AB018E
:100910002191AC0147575E4FA40FB52FB11D2C9309
:100920000196861798F38091AB01680F6093AB0135
:1009300080E0089581E008951092430281E0809361
:10094000420210921D0261E082E10E941A0261E0FF
:1009500083E10E941A02E9EBF0E080818E7F8083C0
:1009600080818D7F808388E48093B80085E48093C4
:10097000BC000895CF93DF9391E090938801882382
:10098000B9F0C091B800D091BA008091BC008A7BC8
:100990008093BC0060E082E10E941A0260E083E183
:1009A0000E941A020E949C04D093BA00C093B8001F
:1009B000DF91CF910895CF92DF92EF92FF920F9344
:1009C0001F93CF93DF93D0916C0281E0D13208F076
:1009D0009CC0C0916B020E9497026B017C018091C8
:1009E000430281116CC082E08093430281E08093D6
:1009F00042028FEF8093410210924002D0933F0257
:100A0000ABE4B2E0EFE1F2E080E0D8138DC01092E9
:100A10001E0280911E02CC0FC82BC0931E02809133
:100A20001D02813009F084C010921D020E949702BD
:100A30006B017C0180911E028093BB008091450276
:100A400090914602A0914702B0914802892B8A2BCF
:100A50008B2BA1F00E949702009145021091460253
:100A600020914702309148026C197D098E099F0937
:100A7000061717072807390708F442C08091BC0001
:100A800083FDD8CF85EC8093BC000E9497026B0158
:100A90007C0180914302823009F44CC08091410274
:100AA0008F3F09F469C080914102803209F466C029
:100AB00080914102803309F463C084E026C08091B4
:100AC000450290914602A0914702B0914802892BBD
:100AD0008A2B8B2B09F483CF0E9497020091450249
:100AE0001091460220914702309148026C197D090D
:100AF0008E099F09061717072807390708F06FCFD7
:100B0000809144020E94BA0485E010924A02109239
:100B10006C0210924902DF91CF911F910F91FF90CB
:100B2000EF90DF90CF9008959D9191938F5F6DCF5F
:100B300085EEA9CF8091450290914602A09147028F
:100B4000B0914802892B8A2B8B2B09F4A2CF0E94EB
:100B50009702009145021091460220914702309180
:100B600048026C197D098E099F0906171707280787
:100B7000390708F08ECFC4CF80E0C7CF82E0C5CF61
:100B800083E0C3CF08950895E091870180918601A5
:100B9000E81730F4F0E0EA59FE4F808190E00895C4
:100BA0008FEF9FEF089590918701809186012FEF3D
:100BB0003FEF981748F4E92FF0E0EA59FE4F208103
:100BC00030E09F5F90938701C9010895809186016D
:100BD00090918701891B990B0895CF92DF92EF9234
:100BE000FF920F931F93CF93DF937C01CB018A0178
:100BF00020914902222389F0EB016B01C40ED51E1E
:100C0000CC15DD0569F06991D701ED91FC9101905A
:100C1000F081E02DC7010995F3CF642F0E94750480
:100C2000C801DF91CF911F910F91FF90EF90DF905E
:100C3000CF900895CF93DF931F92CDB7DEB769832E
:100C4000209149022223F9F020916C02203258F0C1
:100C500021E030E0FC013383228390E080E00F90BC
:100C6000DF91CF91089580914A02E82FF0E0E55B93
:100C7000FD4F998190838F5F80934A0280936C022D
:100C800081E090E0ECCF61E0CE0101960E94750416
:100C9000F7CF21E001C0220F6A95EAF7DC011C962C
:100CA0002C931C971A965C934E931997ED91FC9197
:100CB0000484F585E02D60E00994DC01ED91FC9160
:100CC0000684F785E02D41E0099581E090E00895E4
:100CD000DC01ED91FC910684F785E02D40E009945C
:100CE0000F931F93CF93DF93EC01423018F08C8168
:100CF00088608C834F836887222329F0413019F460
:100D00008C8184608C8364E670E080E090E00E94D7
:100D100094036C8164FD5CC0E881F9810684F785E9
:100D2000E02D42E063E0CE0109958BE496E4019763
:100D3000F1F7E881F9810684F785E02D42E063E070
:100D4000CE01099503E512E0C8010197F1F7E881AA
:100D5000F9810684F785E02D42E063E0CE01099534
:100D6000C8010197F1F7E881F9810684F785E02D44
:100D700042E062E0CE010995C8010197F1F76C816C
:100D80006062CE010E9468068BEE90E00197F1F759
:100D900084E08D836CE0CE010E94680661E0CE01A4
:100DA0000E9468068BE39FE10197F1F782E08E8352
:100DB00066E0CE010E946806E881F9810484F58529
:100DC000E02D6FEFCE01DF91CF911F910F9109942C
:100DD0006062CE010E9468068BE496E40197F1F709
:100DE0006C816062CE010E94680603E512E0C801D2
:100DF0000197F1F76C816062CE010E946806BCCF5A
:100E000008950895089590E080E00895FC012381FD
:100E10002223E1F08181682B6083828191E09093AD
:100E2000490280936B0210924A0210926C028AE08F
:100E300093E00E941A060E94DB04282F30E081E034
:100E400090E0232B11F090E080E0089530E020E066
:100E5000F6CFEF92FF920F931F93CF938C01FC017B
:100E600084E0C0E0262F30E060FF02C09589C92BE6
:100E7000B90175956795815031968111F3CF413055
:100E800011F4F8014489F8016585C62BC42B78015B
:100E9000FEE0EF0EF11CF80162896C2BC7010E9485
:100EA0000607F801628960956C23C701CF911F91F5
:100EB0000F91FF90EF900C9406070F931F93CF9321
:100EC000DF93062F0F70423041F440E0602FDF9136
:100ED000CF911F910F910C942907142FEC0170E012
:100EE00084E0759567958A95E1F7CE010E94290700
:100EF000412F602FCE01EBCFFC0184858823A1F028
:100F0000218532852115310521F4611107C015862F
:100F100006C021303105D9F76111F9CF8587658584
:100F2000CF010E960C9406070895EF92FF920F934F
:100F30001F93CF93DF93EC01062FF42EE22E8B85C7
:100F4000888B109287011092860110924A021092AB
:100F50006C020E949C0482EC95E09093AA0180931D
:100F6000A90183EC95E09093AE018093AD0188894F
:100F700011E01093490280936B020E94DB048111FF
:100F80001CC0198B8AE093E00E94D3058E87898963
:100F9000882339F01F861C8260E0CE010E960E94E5
:100FA00006072E2D4F2D602FCE01DF91CF911F917F
:100FB0000F91FF90EF900C947006198AE8CF0E9471
:100FC000631085ED8093BC008091450290914602AC
:100FD000A0914702B09148020796A11DB11D23E0E0
:100FE000B695A795979587952A95D1F72091BC003E
:100FF00024FD03C010924302089540914502509190
:1010000046026091470270914802452B462B472BC0
:1010100069F30097A105B10541F025E32A95F1F7A1
:1010200000000197A109B109E1CF809144020C941D
:10103000BA041F920F920FB60F9211242F933F9371
:101040004F935F936F937F938F939F93AF93BF93D0
:10105000EF93FF938DE692E00E948B01FF91EF9159
:10106000BF91AF919F918F917F916F915F914F91C0
:101070003F912F910F900FBE0F901F9018951F92C8
:101080000F920FB60F9211242F938F939F93EF938C
:10109000FF93E0917D02F0917E028081E0918302D6
:1010A000F091840282FD1BC09081809186028F5F47
:1010B0008F7320918702821741F0E0918602F0E061
:1010C000E359FD4F958F80938602FF91EF919F9199
:1010D0008F912F910F900FBE0F901F9018958081C8
:1010E000F4CF1F920F920FB60F9211242F933F93BC
:1010F0008F939F93AF93BF938091110290911202AF
:10110000A0911302B09114023091100223E0230F3A
:101110002D3758F50196A11DB11D20931002809323
:10112000110290931202A0931302B09314028091C3
:10113000150290911602A0911702B0911802019623
:10114000A11DB11D8093150290931602A093170262
:10115000B0931802BF91AF919F918F913F912F91C2
:101160000F900FBE0F901F90189526E8230F029640
:10117000A11DB11DD2CF1F920F920FB60F92112455
:101180002F933F934F935F936F937F938F939F938F
:10119000AF93BF93EF93FF93E0911B02F0911C027A
:1011A000309749F0A685B7858585968D91FF14C047
:1011B0009C918923A1F4FF91EF91BF91AF919F91F1
:1011C0008F917F916F915F914F913F912F910F90F0
:1011D0000FBE0F901F9018959C91892361F7A389EA
:1011E000B4899C918589809589238C938689978978
:1011F0000197F1F7608D718DA685B785558538E02B
:1012000020E0CB010197F1F7822F90E0959587952B
:10121000282F4C91452309F02068315091F7868D95
:1012200081FD209580911A0290E001968F73992795
:1012300030911902381799F0A0911A02B0E0A0532A
:10124000BE4F2C9380931A02828D938D0197F1F7F4
:10125000A389B4898C919589892B8C93ACCF868D89
:101260008160868FF1CF1F920F920FB60F921124DB
:101270002F933F934F935F936F937F938F939F939E
:10128000AF93BF93EF93FF938091B900887F80362F
:1012900009F44AC0F0F5883209F4A7C018F5803186
:1012A00009F49BC0B8F4882309F4F9C0883009F424
:1012B00094C0FF91EF91BF91AF919F918F917F91DA
:1012C0006F915F914F913F912F910F900FBE0F90B3
:1012D0001F901895883109F488C0803251F78093A7
:1012E000410214C0803409F49DC040F48033B9F346
:1012F0008833F9F68093410285ECB0C0803509F45B
:1013000085C0883509F496C0883499F60E94E107B3
:10131000D0CF883909F48CC038F5883729F050F4DB
:10132000883611F0803729F683E0809343021092CB
:10133000CF0157C0883809F47BC0803919F0803854
:1013400009F0B7CF8091CF01803208F071C0E091F1
:10135000CF0181E08E0F8093CF018091BB00F0E040
:10136000E155FE4F80833DC0803B39F0E0F4803A88
:1013700009F479C0883A09F09CCF84E08093430255
:101380001092AC011092AB01E091A901F091AA0179
:1013900009958091AB0181110FC081E08093AB0171
:1013A0001092890109C0803C09F4A6CF883C09F459
:1013B000A3CF883B09F07DCFE091AC0181E08E0F97
:1013C0008093AC01F0E0E757FE4F80818093BB0033
:1013D0009091AC018091AB0129C080911E02809355
:1013E000BB0085EC8093BC0064CF9091400280915B
:1013F0003F02981758F5E091400281E08E0F8093EC
:101400004002F0E0E15EFD4F8081E9CFE0914002D3
:1014100081E08E0F809340028091BB00F0E0E15E9E
:10142000FD4F80839091400280913F029817C8F24F
:1014300085E8D8CFE091400281E08E0F8093400292
:101440008091BB00F0E0E15EFD4F8083809142021D
:1014500081115CCF81E080931D0284EA8093BC00FF
:101460001092430226CF85EC8093BC001092430279
:101470008091CF01803230F4E091CF01F0E0E1556E
:10148000FE4F10826091CF0170E0E091AD01F091CC
:10149000AE018FEA91E009951092CF010ACF109228
:1014A000410234CF1092700210926F0288EE93E0E6
:1014B000A0E0B0E08093710290937202A093730257
:1014C000B093740222E131E030936E0220936D02FA
:1014D00025EC30E030937A022093790224EC30E05E
:1014E00030937C0220937B0220EC30E030937E022C
:1014F00020937D0221EC30E03093800220937F0224
:1015000022EC30E0309382022093810226EC30E01E
:1015100030938402209383021092860210928702F5
:10152000109288021092890210920D0310920C03FF
:1015300080930E0390930F03A0931003B0931103B5
:1015400084E291E090930B0380930A0310924F037F
:101550001092560310925D0310925E0310925F0387
:101560001092600381E080935C0380935903109292
:101570005A0392E090935B0380934E038AE590E0D8
:1015800090935303809352030E943E0F909358030D
:1015900080935703009709F4D5C02AE5FC01119206
:1015A0002A95E9F78EE190E09093510380935003E0
:1015B00088E090E0909355038093540380914F030B
:1015C000882341F061E088E00E94660260E088E0E4
:1015D0000E941A02E6EBF1E0E491F0E0EE0FFF1F4B
:1015E000EC55FE4F85919491909362038093610333
:1015F000E8E9F1E0E491E093630310923203109282
:10160000310388EE93E0A0E0B0E080933303909341
:101610003403A0933503B09336038AE491E09093AA
:10162000300380932F0310924603109245031092CB
:1016300048031092470310924A03109249031092F4
:101640004C0310924B0360914D036E7F6D7F60934E
:101650004D036695617081E0682783E00E941A025D
:1016600061E083E00E946602E3E9F1E0E491E09347
:101670003F03E1EBF1E0E491F0E0EE0FFF1FEC55EA
:10168000FE4F85919491909341038093400360E0D5
:1016900082E00E94660280914D0381FD04C061E0FA
:1016A00082E00E941A0282E080933B03E2E9F1E0CB
:1016B000E491E0933C03E0EBF1E0E491F0E0EE0F25
:1016C000FF1FEA57FE4F2591349130933E0320933C
:1016D0003D03109219031092180326E331E0309372
:1016E000170320931603109226039FEF9093250370
:1016F000109224031092270397E2909321031092F3
:101700002203109223031092200310921F0394E0EF
:10171000909328038093290381E080932A0380E13A
:1017200080932B0380E280932C0380E480932D032D
:1017300080E880932E0350E040E063E086E193E090
:101740000C944906109253031092520310925103C5
:10175000109250032DCFCF93DF93CDB7DEB76497B0
:101760000FB6F894DEBF0FBECDBF789484B582600B
:1017700084BD84B5816084BD85B5826085BD85B535
:10178000816085BD80916E00816080936E001092B3
:10179000810080918100826080938100809181002E
:1017A00081608093810080918000816080938000BF
:1017B0008091B10084608093B1008091B00081601D
:1017C0008093B00080917A00846080937A00809149
:1017D0007A00826080937A0080917A0081608093A1
:1017E0007A0080917A00806880937A001092C1001C
:1017F00020E042E060E186E193E00E9495076FEF10
:1018000086E193E00E947C07809106019091070198
:10181000A0910801B09109018D839E83AF83B887A1
:1018200080910A0190910B01A0910C01B0910D01E2
:1018300089839A83AB83BC8320911D0381E02111AE
:1018400080E0819590E030911E038C0F9D1F303118
:1018500009F009C1243009F006C1DC0111966C9130
:10186000606886E193E00E9468064CE050E068E51D
:1018700071E086E193E00E940D0110924A031092FC
:1018800049031092480310924703109246031092A6
:1018900045038DE991E090934C0380934B03909125
:1018A0003B03963108F047C02DEB30E03093460300
:1018B000209345032BE931E03093480320934703FD
:1018C0002CE231E030934A032093490320916800D1
:1018D00084E0983048F031E09E3008F430E081E058
:1018E00001C0880F3A95EAF7822B809368002DE6B5
:1018F00030E0983050F02BE630E09E3030F02CE6AF
:1019000030E0963110F030E020E030934303209334
:101910004203292F30E0983008F0A8C081E001C0D0
:10192000880F9A95EAF78093440380914B03909136
:101930004C030197F1F78091490390914A03892B59
:1019400049F1E0911B02F0911C0223E0EF32F20713
:1019500009F1309739F0A389B4899C9185898095E4
:1019600089238C9380914D038E7F80934D03109239
:101970001A02109219028FE293E090931C02809356
:101980001B02E0914203F091430380819091440354
:10199000892B8083E0917D02F0917E0282E080833A
:1019A000E0917902F0917A021082E0917B02F0914D
:1019B0007C028FEC808310928502E0918102F0918D
:1019C000820286E08083E0917F02F0918002808134
:1019D00080618083E0917F02F09180028081886045
:1019E0008083E0917F02F091800280818068808313
:1019F000E0917F02F091800280818F7D80838091D1
:101A000054039091550397FD08C061E00E9466025F
:101A100060E0809154030E941A0281E080934F039A
:101A200060915603693CA9F1209157033091580306
:101A3000615049F170E08FEF98EC0E94C00EF901FF
:101A40004091520350915303CF01821B930B841793
:101A50009507E0F44081469FC001479F900D1124F7
:101A600090833196EDCFFC016581FACE9E3040F433
:101A70002850310981E001C0880F2A95EAF753CF39
:101A80002E503109F7CF70E060E0D9CF89EC809318
:101A9000560300E010E08FE293E00E943C04892BA3
:101AA00009F437C18FE293E00E9454048133910519
:101AB00009F019C15EEF652ECE0105969A878987D8
:101AC000C12CD12C7601812C912C540110E000E026
:101AD00020915003309151030217130708F0E9C019
:101AE00050E040E0C501B4010E94E80E2C0D3D1D00
:101AF000AAEFB5E00E94070FDC01CB019058AF4F71
:101B0000BF4FCD01BB2797FDB095AB2F8E3FE1E0D6
:101B10009E0708F08DC0482F8F3F910508F4A6C09E
:101B2000F62DF81B8F2F60E04FEF8F87188AEF8517
:101B3000F889CF01B0E0A0E0DC0199278827698B04
:101B40001A8A29893A891901512C412C822B93290F
:101B5000A429B5294B8B1C8AEB89FC89AF0170E065
:101B600060E0762F652F542F4427842B952BA62BCE
:101B7000B72B89839A83AB83BC83DE011196ED91E9
:101B8000F0E0EA57FF4F2491CD010197FC0120833B
:101B900029853A852A173B0791F749815A816B813C
:101BA0007C81CB01AA27BB278B879C87AD87BE870B
:101BB0007B84252E362E472E5524A22DB42FE0915E
:101BC0005603EE2361F08E9F90011124732EE29D47
:101BD00010011124A32DE49FC0011124B92FF0910D
:101BE0005C03209157033091580380915903F813F7
:101BF00043C0C801880F991F800F911F280F391FFC
:101C0000E0915903E20FF32FF11D7082E0915A0326
:101C1000E20FF32FF11DA08380915B03280F311D8C
:101C2000F901B0830F5F1F4FFFEFAF1ABF0A50CF0C
:101C30008C3F43E0940760F462E0680F4FEF8D3F04
:101C4000E2E09E0718F04CEF481B6FEF80E06DCF8D
:101C50008A3FF5E09F0769F06AEF681B8B3F44E01D
:101C6000940740F48C5F6FEF40E05FCF60E08FEF50
:101C70005CCF60E040E0FBCFC801880F991F880F60
:101C8000991F280F391F472F552766277727EE23DF
:101C900051F08E2F90E0849F2001859F500C949FDF
:101CA000500C1124452DC9018F0F911DFC0140835B
:101CB000A7CF8091570390915803892B11F00E9470
:101CC000BC0264E170E080E090E00E9494032FEF9A
:101CD000D21AE20AF20AC114D10431E0E306F10497
:101CE00009F0F1CEEDCEC097A1F44091520350918E
:101CF000530370E060E080915703909158030E9475
:101D000068108091570390915803892B11F00E941D
:101D1000BC020115110509F4BECE0E94770188238B
:101D200009F4B9CE0E940000B6CE8AE491E0909307
:101D3000300380932F0380911B0290911C028F52DD
:101D4000934071F4E0914203F091430390818091BC
:101D5000440380958923808310921C0210921B02F9
:101D600080915703909158030E94DA0F8091540399
:101D70009091550397FD03C060E00C9466020895AE
:101D8000AA1BBB1B51E107C0AA1FBB1FA617B707A1
:101D900010F0A61BB70B881F991F5A95A9F78095BD
:101DA0009095BC01CD01089597FB072E16F4009481
:101DB00007D077FD09D00E94C00E07FC05D03EF485
:101DC000909581959F4F0895709561957F4F0895E7
:101DD000052E97FB1EF400940E94FF0E57FD07D0BE
:101DE0000E94160F07FC03D04EF40C94FF0E509582
:101DF0004095309521953F4F4F4F5F4F08959095F7
:101E00008095709561957F4F8F4F9F4F0895A29F4A
:101E1000B001B39FC001A39F700D811D1124911DBE
:101E2000B29F700D811D1124911D0895A1E21A2EFB
:101E3000AA1BBB1BFD010DC0AA1FBB1FEE1FFF1F6E
:101E4000A217B307E407F50720F0A21BB30BE40BBE
:101E5000F50B661F771F881F991F1A9469F7609505
:101E60007095809590959B01AC01BD01CF010895BF
:101E7000EE0FFF1F0590F491E02D09940F931F932F
:101E8000CF93DF938230910510F482E090E0E091EF
:101E90006603F091670330E020E0B0E0A0E0309707
:101EA00099F42115310509F44AC0281B390B243057
:101EB0003105D8F58A819B816115710589F1FB0196
:101EC00093838283FE0111C040815181028113817D
:101ED00048175907E0F04817590799F4109761F02F
:101EE00012960C93129713961C933296CF01DF91A2
:101EF000CF911F910F91089500936603109367038C
:101F0000F4CF2115310551F04217530738F0A901DC
:101F1000DB019A01BD01DF01F801C1CFEF01F9CF6B
:101F20009093670380936603CDCFFE01E20FF31F0A
:101F3000819391932250310939832883D7CF2091FF
:101F4000640330916503232B41F420910201309109
:101F500003013093650320936403209100013091C5
:101F600001012115310541F42DB73EB7409104011F
:101F700050910501241B350BE0916403F09165033A
:101F8000E217F307A0F42E1B3F0B2817390778F050
:101F9000AC014E5F5F4F2417350748F04E0F5F1FAF
:101FA0005093650340936403819391939FCFF0E036
:101FB000E0E09CCFCF93DF930097E9F0FC013297EC
:101FC00013821282A0916603B0916703ED0130E0A5
:101FD00020E01097A1F420813181820F931F20917E
:101FE0006403309165032817390709F061C0F09345
:101FF0006503E0936403DF91CF910895EA01CE1762
:10200000DF07E8F54A815B819E0141155105B1F773
:10201000E901FB83EA8349915991C40FD51FEC175D
:10202000FD0761F4808191810296840F951FE9017B
:1020300099838883828193819B838A83F0E0E0E0A7
:1020400012968D919C9113970097B9F52D913C9123
:102050001197CD010296820F931F20916403309156
:1020600065032817390739F6309751F51092670341
:1020700010926603B0936503A0936403BCCFD3832F
:10208000C28340815181840F951FC817D90761F41D
:102090004E5F5F4F88819981480F591F518340835C
:1020A0008A819B81938382832115310509F0B0CF0A
:1020B000F0936703E09366039ECFFD01DC01C0CF80
:1020C00013821282D7CF81E090E0F8940C946F10C5
:1020D000DC0101C06D9341505040E0F7089510E0DD
:1020E000C2EED0E004C0FE010E94380F2196C33E2C
:0820F000D107C9F7F894FFCFF6
:1020F80000006803800000401454004010500000A5
:102108000000AD010D013A01FA016B0149015D01C1
:10211800000000001A06ED050307DF03E605D305F6
:10212800C405000000005D060D01030702079507BE
:1021380049067C075D0700000000E0030D01030766
:10214800DF033C045404C70361736961206D69654A
:0621580072647A690000C8
:00000001FF
